{
    "_format": "hh-sol-artifact-1",
    "contractName": "KIOptionFactory",
    "sourceName": "contracts/KIOptionFactory.sol",
    "abi": [
        {
            "anonymous": false,
            "inputs": [
                {
                    "indexed": false,
                    "internalType": "address",
                    "name": "tokenAddress",
                    "type": "address"
                },
                {
                    "indexed": false,
                    "internalType": "address",
                    "name": "creator",
                    "type": "address"
                },
                {
                    "indexed": true,
                    "internalType": "address",
                    "name": "underlying",
                    "type": "address"
                },
                {
                    "indexed": true,
                    "internalType": "address",
                    "name": "collateral",
                    "type": "address"
                },
                {
                    "indexed": false,
                    "internalType": "uint256",
                    "name": "barrierPrice",
                    "type": "uint256"
                },
                {
                    "indexed": false,
                    "internalType": "uint256",
                    "name": "expiry",
                    "type": "uint256"
                },
                {
                    "indexed": false,
                    "internalType": "bool",
                    "name": "isUp",
                    "type": "bool"
                },
                {
                    "indexed": false,
                    "internalType": "bool",
                    "name": "isPlus",
                    "type": "bool"
                }
            ],
            "name": "OptionCreated",
            "type": "event"
        },
        {
            "anonymous": false,
            "inputs": [
                {
                    "indexed": true,
                    "internalType": "address",
                    "name": "previousOwner",
                    "type": "address"
                },
                {
                    "indexed": true,
                    "internalType": "address",
                    "name": "newOwner",
                    "type": "address"
                }
            ],
            "name": "OwnershipTransferred",
            "type": "event"
        },
        {
            "inputs": [],
            "name": "addressRouter",
            "outputs": [
                {
                    "internalType": "contract IAddressRouter",
                    "name": "",
                    "type": "address"
                }
            ],
            "stateMutability": "view",
            "type": "function"
        },
        {
            "inputs": [
                {
                    "internalType": "address",
                    "name": "_underlyingAsset",
                    "type": "address"
                },
                {
                    "internalType": "contract IERC20",
                    "name": "_collateralAsset",
                    "type": "address"
                },
                {
                    "internalType": "uint256",
                    "name": "_multiplier",
                    "type": "uint256"
                },
                {
                    "internalType": "uint256",
                    "name": "_barrierPrice",
                    "type": "uint256"
                },
                {
                    "internalType": "uint256",
                    "name": "_expiry",
                    "type": "uint256"
                },
                {
                    "internalType": "bool",
                    "name": "_isUp",
                    "type": "bool"
                }
            ],
            "name": "createOption",
            "outputs": [
                {
                    "internalType": "address",
                    "name": "",
                    "type": "address"
                },
                {
                    "internalType": "address",
                    "name": "",
                    "type": "address"
                }
            ],
            "stateMutability": "nonpayable",
            "type": "function"
        },
        {
            "inputs": [
                {
                    "internalType": "address",
                    "name": "_underlyingAsset",
                    "type": "address"
                },
                {
                    "internalType": "address",
                    "name": "_collateralAsset",
                    "type": "address"
                },
                {
                    "internalType": "uint256",
                    "name": "_barrierPrice",
                    "type": "uint256"
                },
                {
                    "internalType": "uint256",
                    "name": "_expiry",
                    "type": "uint256"
                },
                {
                    "internalType": "bool",
                    "name": "_isUp",
                    "type": "bool"
                },
                {
                    "internalType": "bool",
                    "name": "_isPlus",
                    "type": "bool"
                }
            ],
            "name": "getOptionAddress",
            "outputs": [
                {
                    "internalType": "address",
                    "name": "",
                    "type": "address"
                }
            ],
            "stateMutability": "view",
            "type": "function"
        },
        {
            "inputs": [
                {
                    "internalType": "address",
                    "name": "_underlyingAsset",
                    "type": "address"
                },
                {
                    "internalType": "address",
                    "name": "_collateralAsset",
                    "type": "address"
                },
                {
                    "internalType": "uint256",
                    "name": "_barrierPrice",
                    "type": "uint256"
                },
                {
                    "internalType": "uint256",
                    "name": "_expiry",
                    "type": "uint256"
                },
                {
                    "internalType": "bool",
                    "name": "_isUp",
                    "type": "bool"
                },
                {
                    "internalType": "bool",
                    "name": "_isPlus",
                    "type": "bool"
                }
            ],
            "name": "getOptionId",
            "outputs": [
                {
                    "internalType": "bytes32",
                    "name": "",
                    "type": "bytes32"
                }
            ],
            "stateMutability": "pure",
            "type": "function"
        },
        {
            "inputs": [],
            "name": "getOptionsLength",
            "outputs": [
                {
                    "internalType": "uint256",
                    "name": "",
                    "type": "uint256"
                }
            ],
            "stateMutability": "view",
            "type": "function"
        },
        {
            "inputs": [
                {
                    "internalType": "contract IAddressRouter",
                    "name": "_addressRouter",
                    "type": "address"
                }
            ],
            "name": "initialize",
            "outputs": [],
            "stateMutability": "nonpayable",
            "type": "function"
        },
        {
            "inputs": [
                {
                    "internalType": "bytes32",
                    "name": "",
                    "type": "bytes32"
                }
            ],
            "name": "optionIdToAddress",
            "outputs": [
                {
                    "internalType": "address",
                    "name": "",
                    "type": "address"
                }
            ],
            "stateMutability": "view",
            "type": "function"
        },
        {
            "inputs": [
                {
                    "internalType": "uint256",
                    "name": "",
                    "type": "uint256"
                }
            ],
            "name": "options",
            "outputs": [
                {
                    "internalType": "address",
                    "name": "",
                    "type": "address"
                }
            ],
            "stateMutability": "view",
            "type": "function"
        },
        {
            "inputs": [],
            "name": "owner",
            "outputs": [
                {
                    "internalType": "address",
                    "name": "",
                    "type": "address"
                }
            ],
            "stateMutability": "view",
            "type": "function"
        },
        {
            "inputs": [],
            "name": "renounceOwnership",
            "outputs": [],
            "stateMutability": "nonpayable",
            "type": "function"
        },
        {
            "inputs": [
                {
                    "internalType": "address",
                    "name": "newOwner",
                    "type": "address"
                }
            ],
            "name": "transferOwnership",
            "outputs": [],
            "stateMutability": "nonpayable",
            "type": "function"
        }
    ],
    "bytecode": "0x608060405234801561001057600080fd5b50611baf806100206000396000f3fe60806040523480156200001157600080fd5b5060043610620000b75760003560e01c8063715018a6116200007a578063715018a6146200018357806379224cc4146200018f5780638da5cb5b14620001a6578063c4d66de814620001be578063f2fde38b14620001d5578063f8289b4214620001ec57600080fd5b80631b409c1c14620000bc578063307c7f2214620000e65780633b65b45b146200012b578063409e220514620001635780635eb57b48146200017a575b600080fd5b620000d3620000cd36600462000d07565b62000200565b6040519081526020015b60405180910390f35b62000112620000f736600462000d80565b6034602052600090815260409020546001600160a01b031681565b6040516001600160a01b039091168152602001620000dd565b620001426200013c36600462000d9a565b62000277565b604080516001600160a01b03938416815292909116602083015201620000dd565b620001126200017436600462000d80565b6200078b565b603354620000d3565b6200018d620007b6565b005b62000112620001a036600462000d07565b6200086e565b6000546201000090046001600160a01b031662000112565b6200018d620001cf36600462000dfa565b620008a5565b6200018d620001e636600462000dfa565b6200093d565b60325462000112906001600160a01b031681565b604080516bffffffffffffffffffffffff19606098891b8116602080840191909152600160f81b60348401529790981b909716603588015260498701949094526069860192909252151560f890811b6089860152901515901b608a8401528051808403606b018152608b9093019052815191012090565b6000804284116200028757600080fd5b600086886001600160a01b031663313ce5676040518163ffffffff1660e01b8152600401602060405180830381865afa158015620002c9573d6000803e3d6000fd5b505050506040513d601f19601f82011682018060405250810190620002ef919062000e21565b620002fc90600a62000f5b565b6200030990600162000f6c565b62000315919062000f6c565b6040516370a0823160e01b815233600482015290915081906001600160a01b038a16906370a0823190602401602060405180830381865afa1580156200035f573d6000803e3d6000fd5b505050506040513d601f19601f8201168201806040525081019062000385919062000f8e565b10156200039157600080fd5b603254604080516001600160a01b0392831660248201528b83166044820152918a16606483018190526084830189905260a4830188905286151560c4808501919091528251808503909101815260e49093018252602080840180516001600160e01b03166318b677ef60e11b179052825163313ce56760e01b815292516000938c939263313ce567926004808401938290030181865afa1580156200043a573d6000803e3d6000fd5b505050506040513d601f19601f8201168201806040525081019062000460919062000e21565b6200046d90600a62000f5b565b6200047a90600162000f6c565b62000486919062000f6c565b905060006200051682620004a08e8e8d8d8d600062000200565b6032546040805163fa4abf8560e01b8152905188926001600160a01b03169163fa4abf859160048083019260209291908290030181865afa158015620004ea573d6000803e3d6000fd5b505050506040513d601f19601f8201168201806040525081019062000510919062000fa8565b62000a70565b905060006200057a83620005308f8f8e8e8e600162000200565b603254604080516303f50b7360e51b8152905189926001600160a01b031691637ea16e609160048083019260209291908290030181865afa158015620004ea573d6000803e3d6000fd5b6040516323b872dd60e01b81523360048201526001600160a01b03848116602483015260448201889052919250908d16906323b872dd906064016020604051808303816000875af1158015620005d4573d6000803e3d6000fd5b505050506040513d601f19601f82011682018060405250810190620005fa919062000fc8565b50604051633253decb60e01b81526001600160a01b0382811660048301526000196024830152831690633253decb90604401600060405180830381600087803b1580156200064757600080fd5b505af11580156200065c573d6000803e3d6000fd5b5050603254604051631d6dc0e160e31b81526001600160a01b0386811660048301528581166024830152909116925063eb6e07089150604401600060405180830381600087803b158015620006b057600080fd5b505af1158015620006c5573d6000803e3d6000fd5b505050508b6001600160a01b03168d6001600160a01b03167f02ac3b405ae98422d7d6a7b51f94bb3054c282845d2ee9590f4db75b7ce5bf5a84338e8e8e6000604051620007199695949392919062000fe8565b60405180910390a38b6001600160a01b03168d6001600160a01b03167f02ac3b405ae98422d7d6a7b51f94bb3054c282845d2ee9590f4db75b7ce5bf5a83338e8e8e6001604051620007719695949392919062000fe8565b60405180910390a3909c909b509950505050505050505050565b603381815481106200079c57600080fd5b6000918252602090912001546001600160a01b0316905081565b6000546001600160a01b03620100009091041633146200081d5760405162461bcd60e51b815260206004820181905260248201527f4f776e61626c653a2063616c6c6572206973206e6f7420746865206f776e657260448201526064015b60405180910390fd5b60008054604051620100009091046001600160a01b0316907f8be0079c531659141344cd1fd0a4f28419497f9722a3daafe3b4186f6b6457e0908390a36000805462010000600160b01b0319169055565b6000806200088188888888888862000200565b6000908152603460205260409020546001600160a01b031698975050505050505050565b600054610100900460ff1680620008bf575060005460ff16155b620008de5760405162461bcd60e51b8152600401620008149062001020565b600054610100900460ff1615801562000901576000805461ffff19166101011790555b6200090b62000b9d565b603280546001600160a01b0319166001600160a01b038416179055801562000939576000805461ff00191690555b5050565b6000546001600160a01b0362010000909104163314620009a05760405162461bcd60e51b815260206004820181905260248201527f4f776e61626c653a2063616c6c6572206973206e6f7420746865206f776e6572604482015260640162000814565b6001600160a01b03811662000a075760405162461bcd60e51b815260206004820152602660248201527f4f776e61626c653a206e6577206f776e657220697320746865207a65726f206160448201526564647265737360d01b606482015260840162000814565b600080546040516001600160a01b03808516936201000090930416917f8be0079c531659141344cd1fd0a4f28419497f9722a3daafe3b4186f6b6457e091a3600080546001600160a01b03909216620100000262010000600160b01b0319909216919091179055565b6000838152603460205260408120546001600160a01b03168062000b315782308560405162000a9f9062000cd4565b62000aad939291906200106e565b604051809103906000f08015801562000aca573d6000803e3d6000fd5b50600086815260346020526040812080546001600160a01b0384166001600160a01b031991821681179092556033805460018101825593527f82a75bdeeae8604d839476ae9efd8b0e15aa447e21bfd7f41283bb54e22c9a82909201805490921617905590505b6040516340c10f1960e01b8152336004820152602481018790526001600160a01b038216906340c10f1990604401600060405180830381600087803b15801562000b7a57600080fd5b505af115801562000b8f573d6000803e3d6000fd5b509298975050505050505050565b600054610100900460ff168062000bb7575060005460ff16155b62000bd65760405162461bcd60e51b8152600401620008149062001020565b600054610100900460ff1615801562000bf9576000805461ffff19166101011790555b62000c0362000c19565b801562000c16576000805461ff00191690555b50565b600054610100900460ff168062000c33575060005460ff16155b62000c525760405162461bcd60e51b8152600401620008149062001020565b600054610100900460ff1615801562000c75576000805461ffff19166101011790555b6000805462010000600160b01b03191633620100008102919091178255604051909182917f8be0079c531659141344cd1fd0a4f28419497f9722a3daafe3b4186f6b6457e0908290a350801562000c16576000805461ff001916905550565b610a9780620010e383390190565b6001600160a01b038116811462000c1657600080fd5b801515811462000c1657600080fd5b60008060008060008060c0878903121562000d2157600080fd5b863562000d2e8162000ce2565b9550602087013562000d408162000ce2565b94506040870135935060608701359250608087013562000d608162000cf8565b915060a087013562000d728162000cf8565b809150509295509295509295565b60006020828403121562000d9357600080fd5b5035919050565b60008060008060008060c0878903121562000db457600080fd5b863562000dc18162000ce2565b9550602087013562000dd38162000ce2565b945060408701359350606087013592506080870135915060a087013562000d728162000cf8565b60006020828403121562000e0d57600080fd5b813562000e1a8162000ce2565b9392505050565b60006020828403121562000e3457600080fd5b815160ff8116811462000e1a57600080fd5b634e487b7160e01b600052601160045260246000fd5b600181815b8085111562000e9d57816000190482111562000e815762000e8162000e46565b8085161562000e8f57918102915b93841c939080029062000e61565b509250929050565b60008262000eb65750600162000f55565b8162000ec55750600062000f55565b816001811462000ede576002811462000ee95762000f09565b600191505062000f55565b60ff84111562000efd5762000efd62000e46565b50506001821b62000f55565b5060208310610133831016604e8410600b841016171562000f2e575081810a62000f55565b62000f3a838362000e5c565b806000190482111562000f515762000f5162000e46565b0290505b92915050565b600062000e1a60ff84168362000ea5565b600081600019048311821515161562000f895762000f8962000e46565b500290565b60006020828403121562000fa157600080fd5b5051919050565b60006020828403121562000fbb57600080fd5b815162000e1a8162000ce2565b60006020828403121562000fdb57600080fd5b815162000e1a8162000cf8565b6001600160a01b039687168152949095166020850152604084019290925260608301521515608082015290151560a082015260c00190565b6020808252602e908201527f496e697469616c697a61626c653a20636f6e747261637420697320616c72656160408201526d191e481a5b9a5d1a585b1a5e995960921b606082015260800190565b600060018060a01b038086168352602081861681850152606060408501528451915081606085015260005b82811015620010b75785810182015185820160800152810162001099565b82811115620010ca576000608084870101525b5050601f01601f19169190910160800194935050505056fe608060405260405162000a9738038062000a978339810160408190526200002691620002ab565b82816200005560017f360894a13ba1a3210667c828492db98dca3e2076cc3735a920a3ca505d382bbd6200038b565b60008051602062000a7783398151915214620000755762000075620003b1565b620000808262000168565b805115620000f7576000826001600160a01b031682604051620000a49190620003c7565b600060405180830381855af49150503d8060008114620000e1576040519150601f19603f3d011682016040523d82523d6000602084013e620000e6565b606091505b5050905080620000f557600080fd5b505b5062000127905060017fb53127684a568b3173ae13b9f8a6016e243e63b6e8ee1178d6a717850b5d61046200038b565b60008051602062000a5783398151915214620001475762000147620003b1565b6200015f8260008051602062000a5783398151915255565b505050620003e5565b6200017e816200020860201b620003f51760201c565b620001f55760405162461bcd60e51b815260206004820152603660248201527f5570677261646561626c6550726f78793a206e657720696d706c656d656e746160448201527f74696f6e206973206e6f74206120636f6e747261637400000000000000000000606482015260840160405180910390fd5b60008051602062000a7783398151915255565b6000813f7fc5d2460186f7233c927e7db2dcc703c0e500b653ca82273b7bfad8045d85a4708181148015906200023d57508115155b949350505050565b80516001600160a01b03811681146200025d57600080fd5b919050565b634e487b7160e01b600052604160045260246000fd5b60005b83811015620002955781810151838201526020016200027b565b83811115620002a5576000848401525b50505050565b600080600060608486031215620002c157600080fd5b620002cc8462000245565b9250620002dc6020850162000245565b60408501519092506001600160401b0380821115620002fa57600080fd5b818601915086601f8301126200030f57600080fd5b81518181111562000324576200032462000262565b604051601f8201601f19908116603f011681019083821181831017156200034f576200034f62000262565b816040528281528960208487010111156200036957600080fd5b6200037c83602083016020880162000278565b80955050505050509250925092565b600082821015620003ac57634e487b7160e01b600052601160045260246000fd5b500390565b634e487b7160e01b600052600160045260246000fd5b60008251620003db81846020870162000278565b9190910192915050565b61066280620003f56000396000f3fe6080604052600436106100595760003560e01c80630b156bb6146100705780633659cfe6146100a15780634f1ef286146100c15780635c60da1b146100d45780638f283970146100e9578063f851a4401461010957610068565b366100685761006661011e565b005b61006661011e565b34801561007c57600080fd5b5061008561013e565b6040516001600160a01b03909116815260200160405180910390f35b3480156100ad57600080fd5b506100666100bc366004610537565b61015b565b6100666100cf366004610559565b610198565b3480156100e057600080fd5b50610085610247565b3480156100f557600080fd5b50610066610104366004610537565b610297565b34801561011557600080fd5b506100856103b0565b61013c61013760008051602061060d8339815191525490565b610431565b565b600061015660008051602061060d8339815191525490565b905090565b6000805160206105ed833981519152546001600160a01b0316336001600160a01b031614156101905761018d81610455565b50565b61018d61011e565b6000805160206105ed833981519152546001600160a01b0316336001600160a01b0316141561023a576101ca83610455565b6000836001600160a01b031683836040516101e69291906105dc565b600060405180830381855af49150503d8060008114610221576040519150601f19603f3d011682016040523d82523d6000602084013e610226565b606091505b505090508061023457600080fd5b50505050565b61024261011e565b505050565b600061025f6000805160206105ed8339815191525490565b6001600160a01b0316336001600160a01b0316141561028c575060008051602061060d8339815191525490565b61029461011e565b90565b6000805160206105ed833981519152546001600160a01b0316336001600160a01b03161415610190576001600160a01b0381166103415760405162461bcd60e51b815260206004820152603a60248201527f5472616e73706172656e745570677261646561626c6550726f78793a206e657760448201527f2061646d696e20697320746865207a65726f206164647265737300000000000060648201526084015b60405180910390fd5b7f7e644d79422f17c01e4894b5f4f588d331ebfa28653d42ae832dc59e38c9798f6103786000805160206105ed8339815191525490565b604080516001600160a01b03928316815291841660208301520160405180910390a161018d816000805160206105ed83398151915255565b60006103c86000805160206105ed8339815191525490565b6001600160a01b0316336001600160a01b0316141561028c57506000805160206105ed8339815191525490565b6000813f7fc5d2460186f7233c927e7db2dcc703c0e500b653ca82273b7bfad8045d85a47081811480159061042957508115155b949350505050565b3660008037600080366000845af43d6000803e808015610450573d6000f35b3d6000fd5b61045e81610495565b6040516001600160a01b038216907fbc7cd75a20ee27fd9adebab32041f755214dbc6bffa90cc0225b39da2e5c2d3b90600090a250565b61049e816103f5565b6105095760405162461bcd60e51b815260206004820152603660248201527f5570677261646561626c6550726f78793a206e657720696d706c656d656e74616044820152751d1a5bdb881a5cc81b9bdd08184818dbdb9d1c9858dd60521b6064820152608401610338565b60008051602061060d83398151915255565b80356001600160a01b038116811461053257600080fd5b919050565b60006020828403121561054957600080fd5b6105528261051b565b9392505050565b60008060006040848603121561056e57600080fd5b6105778461051b565b9250602084013567ffffffffffffffff8082111561059457600080fd5b818601915086601f8301126105a857600080fd5b8135818111156105b757600080fd5b8760208285010111156105c957600080fd5b6020830194508093505050509250925092565b818382376000910190815291905056feb53127684a568b3173ae13b9f8a6016e243e63b6e8ee1178d6a717850b5d6103360894a13ba1a3210667c828492db98dca3e2076cc3735a920a3ca505d382bbca2646970667358221220d13f98dc0ff210e24797513d14762d8417febc52e84cdccc5d4292d8c956c9b564736f6c634300080a0033b53127684a568b3173ae13b9f8a6016e243e63b6e8ee1178d6a717850b5d6103360894a13ba1a3210667c828492db98dca3e2076cc3735a920a3ca505d382bbca264697066735822122026e473ef175e364e196bc31f74bf2dcd0ae2cf4baa81d2120e5f7904577e97fc64736f6c634300080a0033",
    "linkReferences": {},
    "deployedLinkReferences": {}
}