{
  "_format": "hh-sol-artifact-1",
  "contractName": "DaiVault",
  "sourceName": "contracts/DaiVault.sol",
  "abi": [
    {
      "inputs": [],
      "stateMutability": "nonpayable",
      "type": "constructor"
    },
    {
      "anonymous": false,
      "inputs": [
        {
          "indexed": true,
          "internalType": "address",
          "name": "account",
          "type": "address"
        },
        {
          "indexed": false,
          "internalType": "uint256",
          "name": "collateral",
          "type": "uint256"
        },
        {
          "indexed": false,
          "internalType": "uint256",
          "name": "price",
          "type": "uint256"
        }
      ],
      "name": "Liquidated",
      "type": "event"
    },
    {
      "anonymous": false,
      "inputs": [
        {
          "indexed": true,
          "internalType": "address",
          "name": "account",
          "type": "address"
        },
        {
          "indexed": false,
          "internalType": "uint256",
          "name": "debt",
          "type": "uint256"
        },
        {
          "indexed": false,
          "internalType": "uint256",
          "name": "collateral",
          "type": "uint256"
        },
        {
          "indexed": false,
          "internalType": "uint256",
          "name": "liquidationPrice",
          "type": "uint256"
        }
      ],
      "name": "VaultUpdated",
      "type": "event"
    },
    {
      "inputs": [
        {
          "internalType": "address",
          "name": "_account",
          "type": "address"
        }
      ],
      "name": "isLiquidated",
      "outputs": [
        {
          "internalType": "bool",
          "name": "",
          "type": "bool"
        }
      ],
      "stateMutability": "view",
      "type": "function"
    },
    {
      "inputs": [
        {
          "internalType": "address",
          "name": "_account",
          "type": "address"
        },
        {
          "internalType": "uint256",
          "name": "_oraclePrice",
          "type": "uint256"
        },
        {
          "internalType": "uint256",
          "name": "_oracleTimestamp",
          "type": "uint256"
        }
      ],
      "name": "liquidate",
      "outputs": [
        {
          "internalType": "uint256",
          "name": "liquidatedCollateral_",
          "type": "uint256"
        },
        {
          "internalType": "bool",
          "name": "isLiquidated_",
          "type": "bool"
        }
      ],
      "stateMutability": "nonpayable",
      "type": "function"
    },
    {
      "inputs": [
        {
          "internalType": "address",
          "name": "_srcAccount",
          "type": "address"
        },
        {
          "internalType": "uint256",
          "name": "_collateralAmount",
          "type": "uint256"
        },
        {
          "internalType": "uint256",
          "name": "_collateralMarketPrice",
          "type": "uint256"
        },
        {
          "internalType": "uint256",
          "name": "_payout",
          "type": "uint256"
        }
      ],
      "name": "pledge",
      "outputs": [],
      "stateMutability": "nonpayable",
      "type": "function"
    },
    {
      "inputs": [
        {
          "internalType": "address",
          "name": "_account",
          "type": "address"
        },
        {
          "internalType": "uint256",
          "name": "_debt",
          "type": "uint256"
        }
      ],
      "name": "retrieve",
      "outputs": [
        {
          "internalType": "uint256",
          "name": "collateralToRetrieve_",
          "type": "uint256"
        }
      ],
      "stateMutability": "nonpayable",
      "type": "function"
    },
    {
      "inputs": [
        {
          "internalType": "address",
          "name": "vaultManager_",
          "type": "address"
        },
        {
          "internalType": "bool",
          "name": "authorized_",
          "type": "bool"
        }
      ],
      "name": "setVaultManager",
      "outputs": [],
      "stateMutability": "nonpayable",
      "type": "function"
    },
    {
      "inputs": [],
      "name": "totalCollateral",
      "outputs": [
        {
          "internalType": "uint256",
          "name": "",
          "type": "uint256"
        }
      ],
      "stateMutability": "view",
      "type": "function"
    },
    {
      "inputs": [],
      "name": "totalDebt",
      "outputs": [
        {
          "internalType": "uint256",
          "name": "",
          "type": "uint256"
        }
      ],
      "stateMutability": "view",
      "type": "function"
    },
    {
      "inputs": [
        {
          "internalType": "address",
          "name": "",
          "type": "address"
        }
      ],
      "name": "vaultManagers",
      "outputs": [
        {
          "internalType": "bool",
          "name": "",
          "type": "bool"
        }
      ],
      "stateMutability": "view",
      "type": "function"
    },
    {
      "inputs": [
        {
          "internalType": "address",
          "name": "",
          "type": "address"
        }
      ],
      "name": "vaults",
      "outputs": [
        {
          "internalType": "uint256",
          "name": "debt",
          "type": "uint256"
        },
        {
          "internalType": "uint256",
          "name": "collateral",
          "type": "uint256"
        },
        {
          "internalType": "uint256",
          "name": "liquidationPrice",
          "type": "uint256"
        },
        {
          "internalType": "uint256",
          "name": "lastUpdated",
          "type": "uint256"
        },
        {
          "internalType": "bool",
          "name": "isLiquidated",
          "type": "bool"
        }
      ],
      "stateMutability": "view",
      "type": "function"
    }
  ],
  "bytecode": "0x608060405234801561001057600080fd5b50336000908152602081905260409020805460ff19166001179055610b068061003a6000396000f3fe608060405234801561001057600080fd5b50600436106100935760003560e01c8063a3b3f60611610066578063a3b3f60614610104578063a622ee7c14610143578063bab82c22146101ac578063c3a2a665146101cf578063fc7b9c18146101e257600080fd5b80630710285c146100985780634ac8eb5f146100c5578063679b0b8f146100dc57806385a33f9e146100f1575b600080fd5b6100ab6100a636600461092e565b6101eb565b604080519283529015156020830152015b60405180910390f35b6100ce60035481565b6040519081526020016100bc565b6100ef6100ea366004610961565b61044f565b005b6100ef6100ff36600461099a565b61065d565b6101336101123660046109d6565b6001600160a01b031660009081526001602052604090206004015460ff1690565b60405190151581526020016100bc565b6101826101513660046109d6565b6001602081905260009182526040909120805491810154600282015460038301546004909301549192909160ff1685565b6040805195865260208601949094529284019190915260608301521515608082015260a0016100bc565b6101336101ba3660046109d6565b60006020819052908152604090205460ff1681565b6100ce6101dd3660046109f8565b6106bc565b6100ce60025481565b33600090815260208190526040812054819060ff16151560011461022a5760405162461bcd60e51b815260040161022190610a22565b60405180910390fd5b6001600160a01b038516600090815260016020818152604092839020835160a08101855281548152928101549183019190915260028101549282019290925260038201546060820181905260049092015460ff16151560808201529084116102d45760405162461bcd60e51b815260206004820152601f60248201527f4c69717569646174653a20616e206f6c64206f7261636c652070726963652e006044820152606401610221565b6080810151156103265760405162461bcd60e51b815260206004820152601e60248201527f4c69717569646174653a20416c7265616479206c6971756964617465642e00006044820152606401610221565b8060400151851161043d57602080820180516000808552808352604080860182815242606088019081526001608089018181526001600160a01b038f168087529882905294849020895180825597518183018190559351600282018190559251600382015594516004909501805495151560ff199096169590951790945591519398509196507fda91ae4dac502e075938e17f7ae8f8a638df76149d62d5700ee3663b43091697936103ec93909291909283526020830191909152604082015260600190565b60405180910390a260408051848152602081018790526001600160a01b038816917f09c223cfcd8c93e245f558f5f8de755fc0930fd9bc257441155ef5d54a170e0f910160405180910390a2610446565b60009250600091505b50935093915050565b3360009081526020819052604090205460ff1615156001146104835760405162461bcd60e51b815260040161022190610a22565b6001600160a01b038416600090815260016020818152604092839020835160a081018552815480825293820154928101929092526002810154938201939093526003830154606082015260049092015460ff16151560808301526104e8908390610a60565b815260208101516104fa908590610a60565b60208201819052815161051090620f4240610a78565b61051a9190610a97565b60408201819052831161058b5760405162461bcd60e51b815260206004820152603360248201527f506c656467653a204c69717569646174696f6e2070726963652065786365656460448201527239903a34329036b0b935b2ba10383934b1b29760691b6064820152608401610221565b426060820152600060808201526002546105a6908390610a60565b6002556003546105b7908590610a60565b60039081556001600160a01b03861660008181526001602081815260409283902086518082558783015193820184905587850151600283018190556060808a01519884019890985560808901516004909301805460ff1916931515939093179092558451908152918201929092529182015290917fda91ae4dac502e075938e17f7ae8f8a638df76149d62d5700ee3663b43091697910160405180910390a25050505050565b3360009081526020819052604090205460ff1615156001146106915760405162461bcd60e51b815260040161022190610a22565b6001600160a01b03919091166000908152602081905260409020805460ff1916911515919091179055565b3360009081526020819052604081205460ff1615156001146106f05760405162461bcd60e51b815260040161022190610a22565b6001600160a01b038316600090815260016020818152604092839020835160a0810185528154815292810154918301919091526002810154928201929092526003820154606082015260049091015460ff1615801560808301526107a85760405162461bcd60e51b815260206004820152602960248201527f52657472696576653a206e6f7420616c6c6f7765642064756520746f206c69716044820152683ab4b230ba34b7b71760b91b6064820152608401610221565b80518311156108045760405162461bcd60e51b815260206004820152602260248201527f52657472696576653a206578636565647320746865206465627420616d6f756e6044820152613a1760f11b6064820152608401610221565b80516020820151610816908590610a78565b6108209190610a97565b8151909250610830908490610ab9565b81526020810151610842908390610ab9565b602082015242606082015260025461085b908490610ab9565b60025560035461086c908390610ab9565b60039081556001600160a01b03851660008181526001602081815260409283902086518082558783015193820184905587850151600283018190556060808a01519884019890985560808901516004909301805460ff1916931515939093179092558451908152918201929092529182015290917fda91ae4dac502e075938e17f7ae8f8a638df76149d62d5700ee3663b43091697910160405180910390a25092915050565b80356001600160a01b038116811461092957600080fd5b919050565b60008060006060848603121561094357600080fd5b61094c84610912565b95602085013595506040909401359392505050565b6000806000806080858703121561097757600080fd5b61098085610912565b966020860135965060408601359560600135945092505050565b600080604083850312156109ad57600080fd5b6109b683610912565b9150602083013580151581146109cb57600080fd5b809150509250929050565b6000602082840312156109e857600080fd5b6109f182610912565b9392505050565b60008060408385031215610a0b57600080fd5b610a1483610912565b946020939093013593505050565b6020808252600e908201526d139bdd08185d5d1a1bdc9a5e995960921b604082015260600190565b634e487b7160e01b600052601160045260246000fd5b60008219821115610a7357610a73610a4a565b500190565b6000816000190483118215151615610a9257610a92610a4a565b500290565b600082610ab457634e487b7160e01b600052601260045260246000fd5b500490565b600082821015610acb57610acb610a4a565b50039056fea2646970667358221220f5cd27b96796ad72ae056465d631c34b7965b41b3647e1752dc630a9a52d266c64736f6c634300080a0033",
  "linkReferences": {},
  "deployedLinkReferences": {}
}