{
  "_format": "hh-sol-artifact-1",
  "contractName": "OptionMarket",
  "sourceName": "contracts/market/OptionMarket.sol",
  "abi": [
    {
      "anonymous": false,
      "inputs": [
        {
          "indexed": false,
          "internalType": "bytes32",
          "name": "orderId",
          "type": "bytes32"
        },
        {
          "indexed": false,
          "internalType": "address",
          "name": "creator",
          "type": "address"
        },
        {
          "indexed": false,
          "internalType": "address",
          "name": "underlyingAsset",
          "type": "address"
        },
        {
          "indexed": false,
          "internalType": "address",
          "name": "collateralAsset",
          "type": "address"
        },
        {
          "indexed": false,
          "internalType": "uint256",
          "name": "quantity",
          "type": "uint256"
        },
        {
          "indexed": false,
          "internalType": "uint256",
          "name": "barrierPrice",
          "type": "uint256"
        },
        {
          "indexed": false,
          "internalType": "uint256",
          "name": "expiry",
          "type": "uint256"
        },
        {
          "indexed": false,
          "internalType": "bool",
          "name": "isUp",
          "type": "bool"
        },
        {
          "indexed": false,
          "internalType": "uint256",
          "name": "premium",
          "type": "uint256"
        },
        {
          "indexed": false,
          "internalType": "uint256",
          "name": "orderNonce",
          "type": "uint256"
        }
      ],
      "name": "OrderCreated",
      "type": "event"
    },
    {
      "anonymous": false,
      "inputs": [
        {
          "indexed": false,
          "internalType": "bytes32",
          "name": "orderId",
          "type": "bytes32"
        },
        {
          "indexed": false,
          "internalType": "uint256",
          "name": "orderStatus",
          "type": "uint256"
        }
      ],
      "name": "OrderStatusChanged",
      "type": "event"
    },
    {
      "anonymous": false,
      "inputs": [
        {
          "indexed": true,
          "internalType": "address",
          "name": "previousOwner",
          "type": "address"
        },
        {
          "indexed": true,
          "internalType": "address",
          "name": "newOwner",
          "type": "address"
        }
      ],
      "name": "OwnershipTransferred",
      "type": "event"
    },
    {
      "inputs": [
        {
          "internalType": "address",
          "name": "_maker",
          "type": "address"
        },
        {
          "internalType": "address",
          "name": "_underlyingAsset",
          "type": "address"
        },
        {
          "internalType": "address",
          "name": "_collateralAsset",
          "type": "address"
        },
        {
          "internalType": "uint256",
          "name": "_barrierPrice",
          "type": "uint256"
        },
        {
          "internalType": "uint256",
          "name": "_quantity",
          "type": "uint256"
        },
        {
          "internalType": "uint256",
          "name": "_expiry",
          "type": "uint256"
        },
        {
          "internalType": "bool",
          "name": "_isUp",
          "type": "bool"
        },
        {
          "internalType": "uint256",
          "name": "_premium",
          "type": "uint256"
        },
        {
          "internalType": "uint256",
          "name": "_orderNonce",
          "type": "uint256"
        }
      ],
      "name": "cancelOrder",
      "outputs": [],
      "stateMutability": "nonpayable",
      "type": "function"
    },
    {
      "inputs": [
        {
          "internalType": "address",
          "name": "_maker",
          "type": "address"
        },
        {
          "internalType": "address",
          "name": "_underlyingAsset",
          "type": "address"
        },
        {
          "internalType": "address",
          "name": "_collateralAsset",
          "type": "address"
        },
        {
          "internalType": "uint256",
          "name": "_barrierPrice",
          "type": "uint256"
        },
        {
          "internalType": "uint256",
          "name": "_quantity",
          "type": "uint256"
        },
        {
          "internalType": "uint256",
          "name": "_expiry",
          "type": "uint256"
        },
        {
          "internalType": "bool",
          "name": "_isUp",
          "type": "bool"
        },
        {
          "internalType": "uint256",
          "name": "_premium",
          "type": "uint256"
        },
        {
          "internalType": "uint256",
          "name": "_orderNonce",
          "type": "uint256"
        }
      ],
      "name": "getOrderId",
      "outputs": [
        {
          "internalType": "bytes32",
          "name": "",
          "type": "bytes32"
        }
      ],
      "stateMutability": "pure",
      "type": "function"
    },
    {
      "inputs": [
        {
          "internalType": "contract IOptionFactory",
          "name": "_optionFactory",
          "type": "address"
        }
      ],
      "name": "initialize",
      "outputs": [],
      "stateMutability": "nonpayable",
      "type": "function"
    },
    {
      "inputs": [
        {
          "components": [
            {
              "internalType": "address",
              "name": "underlyingAsset",
              "type": "address"
            },
            {
              "internalType": "address",
              "name": "collateralAsset",
              "type": "address"
            },
            {
              "internalType": "uint256",
              "name": "quantity",
              "type": "uint256"
            },
            {
              "internalType": "uint256",
              "name": "barrierPrice",
              "type": "uint256"
            },
            {
              "internalType": "uint256",
              "name": "expiry",
              "type": "uint256"
            },
            {
              "internalType": "bool",
              "name": "isUp",
              "type": "bool"
            },
            {
              "internalType": "uint256",
              "name": "premium",
              "type": "uint256"
            }
          ],
          "internalType": "struct OptionMarket.Order",
          "name": "_order",
          "type": "tuple"
        }
      ],
      "name": "makeOrder",
      "outputs": [],
      "stateMutability": "nonpayable",
      "type": "function"
    },
    {
      "inputs": [],
      "name": "optionFactory",
      "outputs": [
        {
          "internalType": "contract IOptionFactory",
          "name": "",
          "type": "address"
        }
      ],
      "stateMutability": "view",
      "type": "function"
    },
    {
      "inputs": [],
      "name": "orderNonce",
      "outputs": [
        {
          "internalType": "uint256",
          "name": "",
          "type": "uint256"
        }
      ],
      "stateMutability": "view",
      "type": "function"
    },
    {
      "inputs": [
        {
          "internalType": "bytes32",
          "name": "",
          "type": "bytes32"
        }
      ],
      "name": "orderStatus",
      "outputs": [
        {
          "internalType": "enum OptionMarket.OrderStatus",
          "name": "",
          "type": "uint8"
        }
      ],
      "stateMutability": "view",
      "type": "function"
    },
    {
      "inputs": [],
      "name": "owner",
      "outputs": [
        {
          "internalType": "address",
          "name": "",
          "type": "address"
        }
      ],
      "stateMutability": "view",
      "type": "function"
    },
    {
      "inputs": [],
      "name": "renounceOwnership",
      "outputs": [],
      "stateMutability": "nonpayable",
      "type": "function"
    },
    {
      "inputs": [
        {
          "internalType": "address",
          "name": "_maker",
          "type": "address"
        },
        {
          "internalType": "address",
          "name": "_underlyingAsset",
          "type": "address"
        },
        {
          "internalType": "address",
          "name": "_collateralAsset",
          "type": "address"
        },
        {
          "internalType": "uint256",
          "name": "_barrierPrice",
          "type": "uint256"
        },
        {
          "internalType": "uint256",
          "name": "_quantity",
          "type": "uint256"
        },
        {
          "internalType": "uint256",
          "name": "_expiry",
          "type": "uint256"
        },
        {
          "internalType": "bool",
          "name": "_isUp",
          "type": "bool"
        },
        {
          "internalType": "uint256",
          "name": "_premium",
          "type": "uint256"
        },
        {
          "internalType": "uint256",
          "name": "_orderNonce",
          "type": "uint256"
        }
      ],
      "name": "takeOrder",
      "outputs": [],
      "stateMutability": "nonpayable",
      "type": "function"
    },
    {
      "inputs": [
        {
          "internalType": "address",
          "name": "newOwner",
          "type": "address"
        }
      ],
      "name": "transferOwnership",
      "outputs": [],
      "stateMutability": "nonpayable",
      "type": "function"
    }
  ],
  "bytecode": "0x608060405234801561001057600080fd5b5061120d806100206000396000f3fe608060405234801561001057600080fd5b50600436106100a95760003560e01c80637b1ee4cf116100715780637b1ee4cf1461012a5780638da5cb5b1461013d5780639c732ba314610162578063b3461c8714610175578063c4d66de814610188578063f2fde38b1461019b57600080fd5b806316f8de89146100ae57806322da6cd0146100ca5780632dff692d146100dd57806331c392491461010d578063715018a614610122575b600080fd5b6100b760665481565b6040519081526020015b60405180910390f35b6100b76100d8366004610ebc565b6101ae565b6101006100eb366004610f4b565b60676020526000908152604090205460ff1681565b6040516100c19190610f7a565b61012061011b366004610fa2565b61022f565b005b6101206106b6565b610120610138366004610ebc565b61075f565b6033546001600160a01b03165b6040516001600160a01b0390911681526020016100c1565b610120610170366004610ebc565b610994565b60655461014a906001600160a01b031681565b610120610196366004611047565b610b3f565b6101206101a9366004611047565b610bcf565b604080516bffffffffffffffffffffffff1960609b8c1b81166020808401919091529a8c1b8116603483015298909a1b90971660488a0152605c890195909552607c880193909352609c870191909152151560f81b60bc86015260bd85015260dd808501919091528151808503909101815260fd9093019052815191012090565b600061026033836000015184602001518560600151866040015187608001518860a001518960c001516066546101ae565b6065546020840151604080860151905163256b7ced60e21b81526001600160a01b03928316600482015260248101919091529293506000929116906395adf3b490604401602060405180830381865afa1580156102c1573d6000803e3d6000fd5b505050506040513d601f19601f820116820180604052508101906102e5919061106b565b60208401516040516323b872dd60e01b8152336004820152306024820152604481018390529192506001600160a01b0316906323b872dd906064016020604051808303816000875af115801561033f573d6000803e3d6000fd5b505050506040513d601f19601f820116820180604052508101906103639190611084565b506020830151606554604051636eb1769f60e11b81523060048201526001600160a01b03918216602482015291169063dd62ed3e90604401602060405180830381865afa1580156103b8573d6000803e3d6000fd5b505050506040513d601f19601f820116820180604052508101906103dc919061106b565b61045e57602083015160655460405163095ea7b360e01b81526001600160a01b039182166004820152600019602482015291169063095ea7b3906044016020604051808303816000875af1158015610438573d6000803e3d6000fd5b505050506040513d601f19601f8201168201806040525081019061045c9190611084565b505b6040805160c08101825284516001600160a01b0390811682526020808701518216908301908152868401518385019081526060808901519085019081526080808a015190860190815260a0808b01511515908701908152606554975163780a5bf160e11b8152875187166004820152945186166024860152925160448501529051606484015251608483015251151560a4820152919260009283928392169063f014b7e29060c4016060604051808303816000875af1158015610525573d6000803e3d6000fd5b505050506040513d601f19601f8201168201806040525081019061054991906110a1565b60405163a9059cbb60e01b81523360048201526024810182905292955090935091506001600160a01b0384169063a9059cbb906044016020604051808303816000875af115801561059e573d6000803e3d6000fd5b505050506040513d601f19601f820116820180604052508101906105c29190611084565b50600086815260676020526040902080546001919060ff1916828002179055507f53cbe9db73ef0fdb40e2bbf54db5886db823bb923dcc065d41343da831651f11863389600001518a602001518b606001518c604001518d608001518e60a001518f60c001516066546040516106909a99989796959493929190998a526001600160a01b0398891660208b015296881660408a0152949096166060880152608087019290925260a086015260c085015291151560e08401526101008301919091526101208201526101400190565b60405180910390a1606680549060006106a8836110fa565b919050555050505050505050565b6033546001600160a01b031633146107155760405162461bcd60e51b815260206004820181905260248201527f4f776e61626c653a2063616c6c6572206973206e6f7420746865206f776e657260448201526064015b60405180910390fd5b6033546040516000916001600160a01b0316907f8be0079c531659141344cd1fd0a4f28419497f9722a3daafe3b4186f6b6457e0908390a3603380546001600160a01b0319169055565b60006107728a8a8a8a8a8a8a8a8a6101ae565b9050600160008281526067602052604090205460ff16600381111561079957610799610f64565b146107a357600080fd5b6040516323b872dd60e01b81523360048201526001600160a01b038b81166024830152604482018590528916906323b872dd906064016020604051808303816000875af11580156107f8573d6000803e3d6000fd5b505050506040513d601f19601f8201168201806040525081019061081c9190611084565b50606554604051631e48933160e21b81526000916001600160a01b0316906379224cc490610859908d908d908d908c908c90600190600401611115565b602060405180830381865afa158015610876573d6000803e3d6000fd5b505050506040513d601f19601f8201168201806040525081019061089a919061114d565b90506001600160a01b03811663a9059cbb336108be8a670de0b6b3a764000061116a565b6040516001600160e01b031960e085901b1681526001600160a01b03909216600483015260248201526044016020604051808303816000875af1158015610909573d6000803e3d6000fd5b505050506040513d601f19601f8201168201806040525081019061092d9190611084565b506000828152606760205260409020805460ff191660029081179091557ffc2291ea6714b734e2d264b471fc6fc7658500607ee2b6222bf0d17fc5d708a69083905b6040805192835260208301919091520160405180910390a15050505050505050505050565b336001600160a01b038a16146109a957600080fd5b60006109bc8a8a8a8a8a8a8a8a8a6101ae565b9050600160008281526067602052604090205460ff1660038111156109e3576109e3610f64565b146109ed57600080fd5b600081815260676020526040808220805460ff191660031790556065549051631e48933160e21b81526001600160a01b03909116906379224cc490610a41908d908d908d908c908c90600190600401611115565b602060405180830381865afa158015610a5e573d6000803e3d6000fd5b505050506040513d601f19601f82011682018060405250810190610a82919061114d565b90506001600160a01b03811663a9059cbb33610aa68a670de0b6b3a764000061116a565b6040516001600160e01b031960e085901b1681526001600160a01b03909216600483015260248201526044016020604051808303816000875af1158015610af1573d6000803e3d6000fd5b505050506040513d601f19601f82011682018060405250810190610b159190611084565b507ffc2291ea6714b734e2d264b471fc6fc7658500607ee2b6222bf0d17fc5d708a682600361096f565b600054610100900460ff1680610b58575060005460ff16155b610b745760405162461bcd60e51b815260040161070c90611189565b600054610100900460ff16158015610b96576000805461ffff19166101011790555b610b9e610cea565b606580546001600160a01b0319166001600160a01b0384161790558015610bcb576000805461ff00191690555b5050565b6033546001600160a01b03163314610c295760405162461bcd60e51b815260206004820181905260248201527f4f776e61626c653a2063616c6c6572206973206e6f7420746865206f776e6572604482015260640161070c565b6001600160a01b038116610c8e5760405162461bcd60e51b815260206004820152602660248201527f4f776e61626c653a206e6577206f776e657220697320746865207a65726f206160448201526564647265737360d01b606482015260840161070c565b6033546040516001600160a01b038084169216907f8be0079c531659141344cd1fd0a4f28419497f9722a3daafe3b4186f6b6457e090600090a3603380546001600160a01b0319166001600160a01b0392909216919091179055565b600054610100900460ff1680610d03575060005460ff16155b610d1f5760405162461bcd60e51b815260040161070c90611189565b600054610100900460ff16158015610d41576000805461ffff19166101011790555b610d49610d66565b610d51610dd0565b8015610d63576000805461ff00191690555b50565b600054610100900460ff1680610d7f575060005460ff16155b610d9b5760405162461bcd60e51b815260040161070c90611189565b600054610100900460ff16158015610d51576000805461ffff19166101011790558015610d63576000805461ff001916905550565b600054610100900460ff1680610de9575060005460ff16155b610e055760405162461bcd60e51b815260040161070c90611189565b600054610100900460ff16158015610e27576000805461ffff19166101011790555b603380546001600160a01b0319163390811790915560405181906000907f8be0079c531659141344cd1fd0a4f28419497f9722a3daafe3b4186f6b6457e0908290a3508015610d63576000805461ff001916905550565b6001600160a01b0381168114610d6357600080fd5b8035610e9e81610e7e565b919050565b8015158114610d6357600080fd5b8035610e9e81610ea3565b60008060008060008060008060006101208a8c031215610edb57600080fd5b8935610ee681610e7e565b985060208a0135610ef681610e7e565b975060408a0135610f0681610e7e565b965060608a0135955060808a0135945060a08a0135935060c08a0135610f2b81610ea3565b8093505060e08a013591506101008a013590509295985092959850929598565b600060208284031215610f5d57600080fd5b5035919050565b634e487b7160e01b600052602160045260246000fd5b6020810160048310610f9c57634e487b7160e01b600052602160045260246000fd5b91905290565b600060e08284031215610fb457600080fd5b60405160e0810181811067ffffffffffffffff82111715610fe557634e487b7160e01b600052604160045260246000fd5b604052610ff183610e93565b8152610fff60208401610e93565b602082015260408301356040820152606083013560608201526080830135608082015261102e60a08401610eb1565b60a082015260c083013560c08201528091505092915050565b60006020828403121561105957600080fd5b813561106481610e7e565b9392505050565b60006020828403121561107d57600080fd5b5051919050565b60006020828403121561109657600080fd5b815161106481610ea3565b6000806000606084860312156110b657600080fd5b83516110c181610e7e565b60208501519093506110d281610e7e565b80925050604084015190509250925092565b634e487b7160e01b600052601160045260246000fd5b600060001982141561110e5761110e6110e4565b5060010190565b6001600160a01b039687168152949095166020850152604084019290925260608301521515608082015290151560a082015260c00190565b60006020828403121561115f57600080fd5b815161106481610e7e565b6000816000190483118215151615611184576111846110e4565b500290565b6020808252602e908201527f496e697469616c697a61626c653a20636f6e747261637420697320616c72656160408201526d191e481a5b9a5d1a585b1a5e995960921b60608201526080019056fea264697066735822122064e93ae7be87c3fdf5c5fd18fd7aceb057e97b58de67c0bccbffb2333830dae364736f6c634300080a0033",
  "linkReferences": {},
  "deployedLinkReferences": {}
}