{
    "_format": "hh-sol-artifact-1",
    "contractName": "OracleMock",
    "sourceName": "contracts/external/OracleMock.sol",
    "abi": [
        {
            "inputs": [],
            "stateMutability": "nonpayable",
            "type": "constructor"
        },
        {
            "anonymous": false,
            "inputs": [
                {
                    "indexed": true,
                    "internalType": "uint256",
                    "name": "roundId",
                    "type": "uint256"
                },
                {
                    "indexed": true,
                    "internalType": "uint256",
                    "name": "timestamp",
                    "type": "uint256"
                },
                {
                    "indexed": false,
                    "internalType": "uint256",
                    "name": "price",
                    "type": "uint256"
                }
            ],
            "name": "PriceUpdate",
            "type": "event"
        },
        {
            "inputs": [],
            "name": "decimal",
            "outputs": [
                {
                    "internalType": "uint256",
                    "name": "",
                    "type": "uint256"
                }
            ],
            "stateMutability": "view",
            "type": "function"
        },
        {
            "inputs": [],
            "name": "getLatestPrice",
            "outputs": [
                {
                    "internalType": "uint256",
                    "name": "",
                    "type": "uint256"
                },
                {
                    "internalType": "uint256",
                    "name": "",
                    "type": "uint256"
                }
            ],
            "stateMutability": "view",
            "type": "function"
        },
        {
            "inputs": [
                {
                    "internalType": "uint256",
                    "name": "_roundId",
                    "type": "uint256"
                }
            ],
            "name": "getPrice",
            "outputs": [
                {
                    "internalType": "uint256",
                    "name": "",
                    "type": "uint256"
                },
                {
                    "internalType": "uint256",
                    "name": "",
                    "type": "uint256"
                }
            ],
            "stateMutability": "view",
            "type": "function"
        },
        {
            "inputs": [
                {
                    "internalType": "address",
                    "name": "",
                    "type": "address"
                }
            ],
            "name": "operators",
            "outputs": [
                {
                    "internalType": "bool",
                    "name": "",
                    "type": "bool"
                }
            ],
            "stateMutability": "view",
            "type": "function"
        },
        {
            "inputs": [],
            "name": "roundId",
            "outputs": [
                {
                    "internalType": "uint256",
                    "name": "",
                    "type": "uint256"
                }
            ],
            "stateMutability": "view",
            "type": "function"
        },
        {
            "inputs": [
                {
                    "internalType": "uint256",
                    "name": "",
                    "type": "uint256"
                }
            ],
            "name": "roundPrice",
            "outputs": [
                {
                    "internalType": "uint256",
                    "name": "price",
                    "type": "uint256"
                },
                {
                    "internalType": "uint256",
                    "name": "timestamp",
                    "type": "uint256"
                }
            ],
            "stateMutability": "view",
            "type": "function"
        },
        {
            "inputs": [
                {
                    "internalType": "address",
                    "name": "_operator",
                    "type": "address"
                },
                {
                    "internalType": "bool",
                    "name": "_set",
                    "type": "bool"
                }
            ],
            "name": "setOperator",
            "outputs": [],
            "stateMutability": "nonpayable",
            "type": "function"
        },
        {
            "inputs": [
                {
                    "internalType": "uint256",
                    "name": "_price",
                    "type": "uint256"
                }
            ],
            "name": "setPrice",
            "outputs": [],
            "stateMutability": "nonpayable",
            "type": "function"
        }
    ],
    "bytecode": "0x608060405234801561001057600080fd5b50336000908152600360205260409020805460ff1916600117905561036a8061003a6000396000f3fe608060405234801561001057600080fd5b50600436106100885760003560e01c80638cd221c91161005b5780638cd221c91461012d5780638e15f4731461013657806391b7f5ed14610152578063e75722301461016557600080fd5b806313e7c9d81461008d578063558a7297146100c55780635d7b1cc9146100da57806376809ce314610116575b600080fd5b6100b061009b366004610294565b60036020526000908152604090205460ff1681565b60405190151581526020015b60405180910390f35b6100d86100d33660046102b6565b61018d565b005b6101016100e83660046102f2565b6002602052600090815260409020805460019091015482565b604080519283526020830191909152016100bc565b61011f60015481565b6040519081526020016100bc565b61011f60005481565b6000805481526002602052604090208054600190910154610101565b6100d86101603660046102f2565b6101d9565b6101016101733660046102f2565b600090815260026020526040902080546001909101549091565b3360009081526003602052604090205460ff1615156001146101ae57600080fd5b6001600160a01b03919091166000908152600360205260409020805460ff1916911515919091179055565b3360009081526003602052604090205460ff1615156001146101fa57600080fd5b6000805442918061020a8361030b565b9091555050604080518082018252838152602080820184815260008054815260028352848120935184559051600190930192909255905491518481528392917ff08a3b46f5df3430999903a65464921cb8ad37ea42c9fcced53d74978c180f51910160405180910390a35050565b80356001600160a01b038116811461028f57600080fd5b919050565b6000602082840312156102a657600080fd5b6102af82610278565b9392505050565b600080604083850312156102c957600080fd5b6102d283610278565b9150602083013580151581146102e757600080fd5b809150509250929050565b60006020828403121561030457600080fd5b5035919050565b600060001982141561032d57634e487b7160e01b600052601160045260246000fd5b506001019056fea2646970667358221220e44fd882162814ef4616add484f790da8246fb68cc20dbf1d8cf88c19b42813664736f6c634300080a0033",
    "linkReferences": {},
    "deployedLinkReferences": {}
}